:100000000C942A000C943F000C943F000C943F0089
:100010000C943F000C943F000C943F000C943F0064
:100020000C943F000C943F000C943F000C943F0054
:100030000C943F000C943F000C943F000C943F0044
:100040000C943F000C943F000C943F000C943F0034
:100050000C943F0011241FBECFE5D4E0DEBFCDBF1E
:1000600010E0A0E6B0E0ECE3F3E002C005900D92F2
:10007000AC39B107D9F70E94C3000C949C010C94D1
:100080000000806487B987ED86B9349BFECF349A2F
:1000900024B135B1C901089582BB90989198929A84
:1000A0008AEF90E00197F1F7929808950F931F93CC
:1000B0008C01807F90700E944C0084E0000F111F23
:1000C0008A95E1F7C80190700E944C001F910F9132
:1000D000089582E090E00E94560088E290E00E943D
:1000E00056008CE090E00E94560086E090E00E946E
:1000F0005600089582BB909A9198929A8AEF90E068
:100100000197F1F7929808950F931F938C01807FC8
:1001100090700E947A0094E0000F111F9A95E1F709
:10012000C80190700E947A001F910F9108950F935B
:100130001F938C0184E090E00E945600C8016AE0A1
:1001400070E00E947501C0960E948400C8016AE0B8
:1001500070E00E947501CB016AE070E00E947501B9
:10016000C0960E9484001F910F910895CF93DF9352
:10017000EC0103C090E00E94840089918823D1F7AC
:10018000DF91CF910895AF92BF92CF92DF92EF921D
:10019000FF920F931F93CF93DF931ABA8FEF81BB18
:1001A0008FE087BB0E94690084E890E00E945600BF
:1001B00080E690E00E94B60080EC90E00E9456003D
:1001C0008AE690E00E94B60080E197E229E130E003
:1001D000F9013197F1F70197D9F759E1E52EF12CA3
:1001E00004ED10E34AE0A42EBB24B39434E0C32E04
:1001F00025E0D22E80E090E00E94410089B3C82F14
:10020000D0E0CF70D07082EC90E00E945600CE011A
:100210000E94970088E893E1F7013197F1F7019781
:10022000D9F7C230D105A1F4D8BA81E090E00E949C
:100230005600C8010197F1F785EC90E00E94560046
:100240008BE790E00E94B600C8010197F1F736C035
:10025000C430D10579F4C8BA81E090E00E9456001C
:10026000C8010197F1F785EC90E00E94560083E801
:1002700090E035C0C630D10579F4B8BA81E090E09D
:100280000E945600C8010197F1F785EC90E00E94AA
:10029000560088E890E023C0C830D10579F4A8BAA8
:1002A00081E090E00E945600C8010197F1F785ECCB
:1002B00090E00E9456008EE890E011C0259709F06A
:1002C00099CF18BA81E090E00E945600C8010197CA
:1002D000F1F785EC90E00E94560087E990E00E94DB
:1002E000B600C8010197F1F785CF97FB092E0726C5
:1002F0000AD077FD04D00CD006D000201AF47095F7
:1003000061957F4F0895F6F7909581959F4F0895D9
:10031000AA1BBB1B51E107C0AA1FBB1FA617B7072B
:1003200010F0A61BB70B881F991F5A95A9F7809547
:0C0330009095BC01CD010895F894FFCF1A
:10033C004475616C20546F6E65004D756C746970FA
:10034C006C65204672657175656E00464F5257415B
:10035C005244004C454654005249474854004241CF
:0C036C00434B574152440053544F500083
:00000001FF
